:100000000C945D000C947A000C947A000C947A00A5
:100010000C947A000C947A000C947A000C94690287
:100020000C947A000C947A000C947A000C947A0068
:100030000C947A000C947A000C947A000C947A0058
:100040000C947A000C947A000C947A000C947A0048
:100050000C947A000C947A000C947A000C947A0038
:100060000C947A000C947A0052053C0575058F05B6
:10007000B305D705FA0510062606001F000000008C
:100080001F00001F101010101F00001F1818181854
:100090001F00001F1C1C1C1C1F00001F1E1E1E1EFC
:1000A0001F00001F1F1F1F1F1F0003070F1F0F0729
:1000B0000300181C1E1F1E1C180011241FBECFEFAA
:1000C000D8E0DEBFCDBF11E0A0E0B1E0ECECFEE097
:1000D00002C005900D92A43AB107D9F721E0A4EA35
:1000E000B1E001C01D92A23BB207E1F70E945502A8
:1000F0000C9464070C940000CF93DF93CDB7DEB768
:1001000066970FB6F894DEBF0FBECDBFAC018EEF81
:1001100089838DEF8A838BEF8B8397EF9C831D827E
:100120001E8290E1E4E9F1E0DE01179601900D9264
:100130009A95E1F790EF9BB999B1907F903FE1F5E7
:1001400080E03EC0E1E0F0E0EC0FFD1FE90FF11DA3
:1001500020812BB929B1207F203F61F19D8389B196
:10016000807F803B61F018F4803731F00FC0803D14
:1001700049F0803E51F00AC083E08E8307C082E0E0
:100180008E8304C081E08E8301C01E82ED818E814A
:10019000F0E0EE0FFF1FEE0FFF1F21E030E02C0F0D
:1001A0003D1FE20FF31FE80FF11D8681FA018083E6
:1001B00081E006C09F5F01C090E0943018F280E0BB
:1001C00066960FB6F894DEBF0FBECDBFDF91CF911C
:1001D00008958FE08AB980EF8BB908950F931F932C
:1001E000CF93DF931F92CDB7DEB78C01CE0101967E
:1001F0000E947C00811106C09FEF9093A401909310
:10020000000113C089819091A40189130BC09091C2
:100210000001891739F0F8018083898180930001FA
:1002200081E003C08093A40180E00F90DF91CF9123
:100230001F910F910895982F907F95B995B1916076
:1002400095B995B1946095B92DE02A95F1F7000024
:1002500095B19B7F95B995B19E7F95B99DE09A9593
:10026000F1F7000020E1829FC001112485B985B11A
:10027000816085B985B1846085B98DE08A95F1F793
:10028000000085B18B7F85B985B18E7F85B99DE0F2
:100290009A95F1F700000895982F907F95B995B140
:1002A000946095B9E9EFF0E03197F1F700C00000F4
:1002B00095B19B7F95B9E9EFF0E03197F1F700C078
:1002C0000000F0E18F9FC001112485B985B18460E1
:1002D00085B989EF90E00197F1F700C0000085B182
:1002E0008B7F85B9E9EFF0E03197F1F700C00000AE
:1002F000089581E00E944C0108950F931F93CF93BE
:10030000DF93009769F0D62F8C01C0E007C0F80199
:10031000EC0FF11D80810E941B01CF5FCD17B8F358
:10032000DF91CF911F910F910895623031F06330CA
:1003300031F0613029F4805C03C08C5E01C08C5ABE
:1003400080680E944C010895EF92FF920F931F93D3
:10035000CF93DF937C01862F90E0880F991F880F41
:10036000991F880F991F8064C0E0D0E00DC0F7018D
:10037000EC0FFD1F149101E0080F0E944C01812F2A
:100380000E941B012196802FC830D10580F3DF9198
:10039000CF911F910F91FF90EF900895CF93DF932E
:1003A00085EA9EE00197F1F700C0000015B815B886
:1003B00084B1806F84B984B1876084B990E395B9C2
:1003C00085B1846085B9E9EFF0E03197F1F700C0BD
:1003D000000085B18B7F85B9E9EFF0E03197F1F747
:1003E00000C0000095B985B1846085B989EF90E0BF
:1003F0000197F1F700C0000085B18B7F85B9E9EF67
:10040000F0E03197F1F700C0000080E285B985B1D6
:10041000846085B989EF90E00197F1F700C0000092
:1004200085B18B7F85B9E9EFF0E03197F1F700C036
:10043000000088E20E944C018CE00E944C0160E0C8
:10044000C0E00AC0D1E0D60F8C2F90E086589F4FB5
:100450000E94A401C85F6D2FC034A0F3DF91CF913B
:1004600008958FE00E944C0108958CE00E944C0199
:1004700008958091A501882321F01092A5010E9482
:1004800026050895E6EBF0E0808180648083109279
:10049000B2008FEF8093B30082E08093B00097E0CA
:1004A0009093B1008093700008950E94CE010E9445
:1004B0009F020E94E9000E94420240E050E064E195
:1004C00070E080E190E00E943B0678940E9439023F
:1004D000FDCF1F920F920FB60F9211242F933F93CF
:1004E0004F935F936F937F938F939F93AF93BF933C
:1004F000EF93FF9381E08093A5018091A6019091F5
:10050000A70101969093A7018093A601039731F468
:100510001092A7011092A6010E940C07FF91EF9183
:10052000BF91AF919F918F917F916F915F914F910B
:100530003F912F910F900FBE0F901F90189581E063
:100540008093A8011092AA011092A9010895BC01FC
:1005500090E00DC0292F30E0FB01E20FF31F408136
:10056000F901E057FE4F2081421305C09F5F943090
:1005700088F381E0089580E008950F931F93CF934F
:10058000DF9300D000D01F92CDB7DEB78A8360E042
:1005900086E00E9495018AE20E941B0111E019C0C9
:1005A000CE0101960E94EE00882399F0E2E0F0E08F
:1005B000EC0FFD1FE10FF11D8981808301E0010F28
:1005C00060E086E0810F0E9495018AE20E941B0193
:1005D000102F143028F3CE0102960E94A7020F902C
:1005E0000F900F900F900F90DF91CF911F910F916F
:1005F00008950F931F93CF93DF9300D000D01F92E5
:10060000CDB7DEB710E019C0CE0101960E94EE0012
:10061000882399F0E2E0F0E0EC0FFD1FE10FF11DFF
:100620008981808301E0010F61E089E0810F0E94F0
:1006300095018AE20E941B01102F143028F3CE018D
:1006400002960E94A7020F900F900F900F900F90AC
:10065000DF91CF911F910F910895BC0190E00BC0E5
:10066000292F30E0FB01E20FF31F4081F901E05731
:10067000FE4F40839F5F943098F308951F93CF936C
:10068000DF9300D000D01F92CDB7DEB780E389831F
:1006900010E01BC0CE0101960E94EE008823A9F055
:1006A00089818332E9F0143078F4E2E0F0E0EC0F75
:1006B000FD1FE10FF11D808361E088E0810F0E9442
:1006C00095018AE20E941B011F5F153018F3898192
:1006D000843401F7CE0102960E942D0381E001C00F
:1006E00080E00F900F900F900F900F90DF91CF91BF
:1006F0001F910895CF93DF93D82FC0E008C06D2FCE
:100700008C2F0E94950180E20E941B01CF5FC031B7
:10071000B0F3DF91CF9108951F93CF93DF931F9292
:10072000CDB7DEB711E00DC0CE0101960E94EE00FC
:10073000882339F080E00E94530680E00E947A030B
:1007400010E01111F1CF89818234A9F018F48134BD
:1007500031F00BC0833429F0843429F006C088E0DE
:100760000DC086E00BC083E009C00E94BD02882353
:1007700021F080E003C087E001C082E00F90DF91AC
:10078000CF911F9108959FEB980F943030F08A32EB
:1007900031F0833231F480E0089580E0089580E004
:1007A000089581E00895AF92BF92CF92DF92EF92C9
:1007B000FF920F931F93CF93DF931F92CDB7DEB7B6
:1007C000A82E81E00E947A0361E070E080E090E072
:1007D0000E94E10681E0A81621F082E0A81651F0FF
:1007E00012C061E083E00E9495010F2EF2E4CF2E4B
:1007F000F02D0CC061E086E00E9495010F2EF3E41D
:10080000CF2EF02D03C06894CC24C5F80E9431028D
:1008100001E0FF24F394EE24E394BB24B39422C0BC
:10082000CE0101960E94EE008823E1F01981812F0C
:100830000E94C303882381F01633A0F4812F90E037
:10084000C097D82EDD0C8D2D880F880FD80E812FE4
:100850000E941B01E12C06C0133221F400E0F12CB0
:10086000E12CB12CE110DCCF1DC0CE0101960E941D
:10087000EE008823B9F01981812F0E94C3038823D9
:1008800061F08D2D810F0F2EF0EDDF2EF02DD80EA3
:10089000812F0E941B01F12C05C0133219F400E0D6
:1008A000F12CB12CF110E1CF10C0CE0101960E94C5
:1008B000EE00882351F08981C81619F0833229F49B
:1008C00002C000E002C000E0B12C0111EECFBB205D
:1008D00081F081E0A81621F082E0A81631F009C06D
:1008E0008D2D90E00E94490604C08D2D90E00E945D
:1008F0004E060E9435020F90DF91CF911F910F910C
:10090000FF90EF90DF90CF90BF90AF900895CF927F
:10091000DF92EF92FF920F931F93CF93DF931F927B
:10092000CDB7DEB781E00E947A0361E070E080E03D
:1009300090E00E94E10661E080E00E9495010E9443
:10094000310201E0FF24F394EE24E394CC24C39419
:1009500022C0CE0101960E94EE008823E1F01981A9
:10096000812F0E94C303882381F01333A0F4812FC9
:1009700090E0C097D82EDD0C8D2D880F880FD80EF3
:10098000812F0E941B01E12C06C0133221F400E0EC
:10099000F12CE12CC12CE110DCCF31C0CE0101964D
:1009A0000E94EE00882359F11981812F0E94C30310
:1009B000882301F183E18D1560F08D2D810F0F2EBD
:1009C000F0EDDF2EF02DD80E812F0E941B01F12CAF
:1009D00016C01433A0F41D0D0F2EF0EDDF2EF02DF8
:1009E000D10E61E081E00E94950189810E941B0186
:1009F000F12C05C0133219F400E0F12CC12CF110D8
:100A0000CDCF10C0CE0101960E94EE00882351F098
:100A10008981813419F0833229F402C000E002C0D8
:100A200000E0C12C0111EECFCC2021F08D2D90E003
:100A30000E9444060E9435020F90DF91CF911F91D2
:100A40000F91FF90EF90DF90CF9008958091A901D2
:100A50009091AA0101969093AA018093A901E09137
:100A6000A8018E2F90E08930910508F003C1FC01A8
:100A7000EC5CFF4F0C944A070E94790181E00E94D0
:100A8000530661E085E00E94950166E084E891E00C
:100A90000E947D010E948C038093A8011092AA01FC
:100AA0001092A9010E94790160E086E00E94950100
:100AB00064E080E391E00E947D0161E086E00E94B5
:100AC000950164E08BE891E00E947D018091A9018D
:100AD0009091AA010D970CF4CDC081E08093A801FC
:100AE0001092AA011092A90108950E94790161E073
:100AF00084E00E94950169E08AE791E00E947D010F
:100B00008091A9019091AA0109970CF4B3C081E0EA
:100B10008093A8011092AA011092A90108950E9441
:100B2000790160E080E00E9495016DE087E591E049
:100B30000E947D0161E080E00E94950167E08FE402
:100B400091E00E947D010E94F902882321F084E057
:100B50008093A80103C082E08093A8011092AA01AB
:100B60001092A90108950E94790160E080E00E943E
:100B700095016DE08CE691E00E947D0161E080E0EE
:100B80000E94950166E085E691E00E947D010E9449
:100B90003E03882321F085E08093A80103C081E013
:100BA0008093A8011092AA011092A90108950E94B1
:100BB000790160E082E00E9495016CE082E491E0BE
:100BC0000E947D0161E082E00E9495016CE085E376
:100BD00091E00E947D018091A9019091AA0109975D
:100BE0000CF448C081E08093A8011092AA011092F1
:100BF000A90108950E94790160E080E00E949501BA
:100C000060E18FE191E00E947D0182E00E94D303C8
:100C100081E08093A8011092AA011092A901089581
:100C20000E94790160E080E00E9495016FE08FE012
:100C300091E00E947D0181E00E94D30381E08093D6
:100C4000A8011092AA011092A90108950E947901A9
:100C500060E080E00E9495016CE081E091E00E94FC
:100C60007D010E94870481E08093A8011092AA016F
:100C70001092A9010895ECEAF1E0918380837383D7
:100C800062835583448308959093AD018093AC01B2
:100C900008959093AF018093AE0108959093B101B0
:100CA0008093B00108958093AB010895EF92FF9275
:100CB0000F931F93CF93DF93F82EE62E86E08F0DD0
:100CC0000E9495010CEA11E0F80184819581CAE047
:100CD000D0E0BE010E94360780E3860F0E941B0110
:100CE0006E2D87E08F0D0E949501F801848195811A
:100CF000BE010E943607805D0E941B01DF91CF91EB
:100D00001F910F91FF90EF900895EF92FF920F9334
:100D10001F93CF93DF93F82EE62E83E08F0D0E9472
:100D200095010CEA11E0F80182819381CAE0D0E0DC
:100D3000BE010E94360780E3860F0E941B016E2DC4
:100D400084E08F0D0E949501F80182819381BE019C
:100D50000E943607805D0E941B01DF91CF911F9199
:100D60000F91FF90EF900895EF92FF920F931F93D2
:100D7000CF93DF93F82EE62E0E9495010CEA11E046
:100D8000F80180819181CAE0D0E0BE010E9436075F
:100D900080E3860F0E941B016E2D81E08F0D0E9463
:100DA0009501F80180819181BE010E943607805D26
:100DB0000E941B01DF91CF911F910F91FF90EF9047
:100DC00008950F931F93CF93DF93C82F192FD62F1A
:100DD000072F0E94B4066D2F82E08C0F0E949501B0
:100DE0008AE30E941B016D2F702F8C2F912F0E9480
:100DF00085066D2F85E08C0F0E9495018AE30E9485
:100E00001B016D2F702F8C2F912F0E945606DF91A2
:100E1000CF911F910F910895ECEAF1E084819581C3
:100E2000019695838483CC97B1F4158214828281D4
:100E30009381019693838283CC9769F41382128203
:100E400080819181019691838083892B21F010927A
:100E5000AD011092AC018091AB01882331F060E0CC
:100E600070E084E090E00E94E106089597FB072E71
:100E700016F4009407D077FD09D00E94500707FCB4
:100E800005D03EF4909581959F4F0895709561959A
:100E90007F4F0895EE0FFF1F0590F491E02D099408
:100EA000AA1BBB1B51E107C0AA1FBB1FA617B70790
:100EB00010F0A61BB70B881F991F5A95A9F78095AC
:0C0EC0009095BC01CD010895F894FFCF7F
:100ECC00FF43414D4249415220484F524153004348
:100EDC00414D42494152204D494E55544F530043C8
:100EEC00414D4249415220534547554E444F5300C2
:100EFC002A2A2A2A004E554556412020434C415659
:100F0C00450046494E2020494E475245534F00411B
:100F1C00435455414C3A00494E47524553452043A2
:100F2C004C41564500434C4156453A00494E4752B8
:100F3C00455345204E554556410044454E45474185
:100F4C0054454400434C4F534544004F50454E00CC
:100F5C003038353231323341343536423738394313
:040F6C002A302344C0
:00000001FF
